:100000000C942A000C941E050C9447050C94700562
:100010000C9440040C9417040C94BF030C946D03CF
:100020000C9496030C9444030C94AF020C94860237
:100030000C948A040C9478000C9447000C94A10052
:100040000C9447000C9447000C9447000C94470014
:100050000C94470011241FBECFE5D8E0DEBFCDBF12
:1000600010E0A0E6B0E0E0ECF7E102C005900D92F0
:10007000AA39B107D9F710E0AAE9B0E001C01D9292
:10008000A63EB107E1F70E94670B0C94DE0B0C94BF
:10009000000083E389B95998539A549A08955D9B57
:1000A000FECF8CB908955F9BFECF8CB10895FC0103
:1000B0005F9902C080E008958CB1808381E008954B
:1000C0008FB780688FBF0895089590939D008093A7
:1000D0009C0008958FB780688FBF0895089590930E
:1000E0009B0080939A0008958CB908958CB108956F
:1000F0001F920F920FB60F9211242F933F934F939D
:100100005F936F937F938F939F93AF93BF93EF937F
:10011000FF93E0919C00F0919D00309709F00995C4
:10012000FF91EF91BF91AF919F918F917F916F91CF
:100130005F914F913F912F910F900FBE0F901F90A5
:1001400018951F920F920FB60F9211242F933F9381
:100150004F935F936F937F938F939F93AF93BF93CF
:10016000EF93FF93E0919A00F0919B00309709F094
:100170000995FF91EF91BF91AF919F918F917F91E1
:100180006F915F914F913F912F910F900FBE0F9004
:100190001F90189581E080939E000895FC01809146
:1001A0009E00813081F480919F00E80FF11D8081D5
:1001B000882349F00E94740080919F008F5F809394
:1001C0009F0010929E0008958AEC90E00E946F00BC
:1001D0000E946A000895E091A100F0E0EE0FFF1F79
:1001E000EC55FF4F9183808385E391E00E946F007F
:1001F0000E946A008091A1008F5F8093A1008431EA
:1002000011F41092A10008950F931F938C0184E1C3
:1002100091E00E9465000E9460001093CD00009361
:10022000CC001F910F9108950F931F938091A00010
:100230000091CC001091CD00080F111D0E94760096
:10024000F80180838091A0008F5F8093A000E091EF
:10025000CC00F091CD00E80FF11D8081833211F4C4
:100260001092A0001F910F9108959091A200E92F84
:10027000F0E0EE0FFF1FEC55FF4F8091A3000190BF
:10028000F081E02DE80FF11D8081882341F00E946C
:100290004F008091A3008F5F8093A3000895109278
:1002A000A300892F8F5F8093A200843111F41092F4
:1002B000A2000895EF92FF920F931F93CF93DF93C5
:1002C000EC01EE2401C0E394FE01EE0DF11D8081EE
:1002D0008823C9F78E2D0E944F008E01FF24C0E0B5
:1002E000D0E00AC0F80180810E944F00F80181919E
:1002F0008F01C80FD11DF394FE14A0F38C2F0E9420
:100300004F008D2F0E944F00DF91CF911F910F91D1
:10031000FF90EF900895EF92FF920F931F937B0150
:100320008C01862F0E944F00BB27A12F902F8F2D6D
:100330000E944F00C801AA27BB270E944F00E12E50
:10034000FF24002711278E2D0E944F001F910F912F
:10035000FF90EF9008951F93CF93DF93EC0110E08F
:1003600003C00E944F001F5FFE01E10FF11D80815D
:100370008823B9F7DF91CF911F910895CF92DF9233
:10038000EF92FF920F931F93CF93DF93EC010E94A4
:100390005300182F6E01EE24FF2400E008C00E94D5
:1003A0005300F60181936F01E80EF11C0F5F0117F6
:1003B000B0F30E945300082F0E945300C10FD11DBB
:1003C000188290E0382F20E010E0202B312B2E15E2
:1003D0003F0509F491E0892FDF91CF911F910F9193
:1003E000FF90EF90DF90CF900895CF92DF92EF9241
:1003F000FF920F931F930E945300E82E0E94530018
:10040000C82E0E945300D82E0E9453003D2D332742
:1004100020E09C2D80E0282B392B442737FD409588
:10042000542FFF2400E010E02E293F29402B512BB0
:10043000B901CA011F910F91FF90EF90DF90CF900B
:1004400008951F93CF93DF93EC010E94530088839C
:1004500010E007C01F5F0E945300FE01E10FF11D75
:100460008083FE01E10FF11D80818D3099F71082AC
:10047000DF91CF911F9108951F93CF93DF93EC01EC
:100480000E945300888310E007C01F5F0E94530042
:10049000FE01E10FF11D8083FE01E10FF11D80815E
:1004A000833299F71082DF91CF911F91089513BE87
:1004B00083B7836083BF83B78F7B83BF83B7877F17
:1004C00083BF089583B7806183BF08958FB7806825
:1004D0008FBF89B7816089BF089589B78E7F89BF33
:1004E00008958FB780688FBF89B7826089BF0895EC
:1004F00089B78D7F89BF08959093DD008093DC00DC
:1005000008959093DB008093DA0008951F920F9274
:100510000FB60F9211242F933F934F935F936F93D6
:100520007F938F939F93AF93BF93EF93FF93E0914C
:10053000DC00F091DD00309709F00995FF91EF9113
:10054000BF91AF919F918F917F916F915F914F91EB
:100550003F912F910F900FBE0F901F9018951F92F3
:100560000F920FB60F9211242F933F934F935F93E7
:100570006F937F938F939F93AF93BF93EF93FF936B
:10058000E091DA00F091DB00309709F00995FF91D6
:10059000EF91BF91AF919F918F917F916F915F91FB
:1005A0004F913F912F910F900FBE0F901F90189574
:1005B0001FBC1EBC8EB583608EBD8FB58E7F8FBD78
:1005C0008FB58D7F8FBD8EB5877F8EBD8EB58F7EAB
:1005D0008EBD08958FB58F738FBD8FB580648FBD2D
:1005E00008958FB58F7C8FBD8FB580618FBD0895C5
:1005F000882321F48EB580648EBD0895813019F46E
:100600008EB58F7B8EBD08958FB780688FBF89B7F9
:10061000846089BF089589B78B7F89BF08958FB79C
:1006200080688FBF89B7806189BF089589B78F7E41
:1006300089BF08958FB780688FBF89B7886089BFE9
:10064000089589B7877F89BF08958FB780688FBF66
:1006500089B7806289BF089589B78F7D89BF089562
:100660009093D9008093D80008959093D7008093F9
:10067000D60008959093D5008093D4000895909368
:10068000D3008093D20008951F920F920FB60F925D
:1006900011242F933F934F935F936F937F938F9387
:1006A0009F93AF93BF93EF93FF93E091D800F091A6
:1006B000D900309709F00995FF91EF91BF91AF9163
:1006C0009F918F917F916F915F914F913F912F916A
:1006D0000F900FBE0F901F9018951F920F920FB69C
:1006E0000F9211242F933F934F935F936F937F93B8
:1006F0008F939F93AF93BF93EF93FF93E091D600B7
:10070000F091D700309709F00995FF91EF91BF91D3
:10071000AF919F918F917F916F915F914F913F9199
:100720002F910F900FBE0F901F9018951F920F9250
:100730000FB60F9211242F933F934F935F936F93B4
:100740007F938F939F93AF93BF93EF93FF93E0912A
:10075000D400F091D500309709F00995FF91EF9101
:10076000BF91AF919F918F917F916F915F914F91C9
:100770003F912F910F900FBE0F901F9018951F92D1
:100780000F920FB60F9211242F933F934F935F93C5
:100790006F937F938F939F93AF93BF93EF93FF9349
:1007A000E091D200F091D300309709F00995FF91C4
:1007B000EF91BF91AF919F918F917F916F915F91D9
:1007C0004F913F912F910F900FBE0F901F90189552
:1007D00015BC85B5836085BD85B58F7B85BD85B529
:1007E000877F85BD089585B5806185BD08958FB7E4
:1007F00080688FBF89B7806489BF089589B78F7B70
:1008000089BF08958FB780688FBF89B7806889BF17
:10081000089589B78F7789BF08959093D100809309
:10082000D00008959093CF008093CE0008951F923A
:100830000F920FB60F9211242F933F934F935F9314
:100840006F937F938F939F93AF93BF93EF93FF9398
:10085000E091D000F091D100309709F00995FF9117
:10086000EF91BF91AF919F918F917F916F915F9128
:100870004F913F912F910F900FBE0F901F901895A1
:100880001F920F920FB60F9211242F933F934F9305
:100890005F936F937F938F939F93AF93BF93EF93E8
:1008A000FF93E091CE00F091CF00309709F00995C9
:1008B000FF91EF91BF91AF919F918F917F916F9138
:1008C0005F914F913F912F910F900FBE0F901F900E
:1008D00018956C9A6E9A08958FB9779BFECF8FB159
:1008E00008958FB90895FC01779902C080E00895BA
:1008F0008FB1808381E008958FB108958FB78068AC
:100900008FBF6F9A08956F9808959093DF0080933A
:10091000DE0008951F920F920FB60F9211242F93AD
:100920003F934F935F936F937F938F939F93AF9377
:10093000BF93EF93FF93E091DE00F091DF003097DB
:1009400009F00995FF91EF91BF91AF919F918F9120
:100950007F916F915F914F913F912F910F900FBEBB
:100960000F901F901895CF92DF92EF92FF921F93F6
:10097000CF93DF936C017B0110E006C00E946C04F2
:10098000CE0DDF1D88831F5FC12FD0E0F601EC0F75
:10099000FD1F8081882391F7DF91CF911F91FF90F8
:1009A000EF90DF90CF90089578940895F89408958B
:1009B0009BB721E030E002C0220F331F8A95E2F797
:1009C000922B9BBF08959BB721E030E002C0220F1D
:1009D000331F8A95E2F7209529232BBF089586308F
:1009E00029F0873041F0853091F40EC08BB78C7FB1
:1009F0008BBF8BB706C08BB7837F8BBF8BB7660F60
:100A0000660F862B8BBF08958AB78F7B8ABF0895A8
:100A1000863029F0873041F0853079F40AC0709330
:100A2000E5006093E40008957093E3006093E200B2
:100A300008957093E1006093E00008951F920F9273
:100A40000FB60F9211242F933F934F935F936F93A1
:100A50007F938F939F93AF93BF93EF93FF93E09117
:100A6000E400F091E500309709F00995FF91EF91CE
:100A7000BF91AF919F918F917F916F915F914F91B6
:100A80003F912F910F900FBE0F901F9018951F92BE
:100A90000F920FB60F9211242F933F934F935F93B2
:100AA0006F937F938F939F93AF93BF93EF93FF9336
:100AB000E091E200F091E300309709F00995FF9191
:100AC000EF91BF91AF919F918F917F916F915F91C6
:100AD0004F913F912F910F900FBE0F901F9018953F
:100AE0001F920F920FB60F9211242F933F934F93A3
:100AF0005F936F937F938F939F93AF93BF93EF9386
:100B0000FF93E091E000F091E100309709F0099542
:100B1000FF91EF91BF91AF919F918F917F916F91D5
:100B20005F914F913F912F910F900FBE0F901F90AB
:100B30001895982F969596959695482F4770613001
:100B400009F444C0613020F0623009F0C6C080C0B2
:100B50009130A9F0913030F09230F1F0933009F0FB
:100B6000BCC027C08AB321E030E002C0220F331F8F
:100B70004A95E2F7209582238ABB8BB33CC087B3AA
:100B800021E030E002C0220F331F4A95E2F72095A2
:100B9000822387BB88B33DC084B321E030E002C02C
:100BA000220F331F4A95E2F72095822384BB85B339
:100BB0003EC081B321E030E002C0220F331F4A95CE
:100BC000E2F72095822381BB82B33FC09130B1F020
:100BD000913030F0923001F1933009F07EC02AC09C
:100BE0008AB321E030E001C0220F4A95EAF7822B58
:100BF0008ABB8BB3209528232BBB089587B321E0B4
:100C000030E001C0220F4A95EAF7822B87BB88B3F8
:100C10002095282328BB089584B321E030E001C04B
:100C2000220F4A95EAF7822B84BB85B320952823AF
:100C300025BB089581B321E030E001C0220F4A9521
:100C4000EAF7822B81BB82B32095282322BB08952B
:100C50009130B9F0913030F0923011F1933009F0C9
:100C60003CC02DC03AB381E090E001C0880F4A95A6
:100C7000EAF7282F209523232ABB2BB3822B8BBB8B
:100C8000089537B381E090E001C0880F4A95EAF7F4
:100C9000282F2095232327BB28B3822B88BB0895B8
:100CA00034B381E090E001C0880F4A95EAF7282F1D
:100CB0002095232324BB25B3822B85BB089531B314
:100CC00081E090E001C0880F4A95EAF7282F20952F
:100CD000232321BB22B3822B82BB08951F93CF9382
:100CE000DF9310E0C0E0D0E0E12FF0E0E259FF4FE9
:100CF000812F60810E9499051F5F2196C032D10526
:100D000099F7DF91CF911F910895382F377086950D
:100D1000869586958130D1F0813030F0823041F176
:100D2000833009F048C036C02BB381E090E0032E39
:100D300002C0880F991F0A94E2F78095822301C0B0
:100D4000660F3A95EAF7862B8BBB089528B381E0AE
:100D500090E0032E02C0880F991F0A94E2F7809555
:100D6000822301C0660F3A95EAF7862B88BB089567
:100D700025B381E090E0032E02C0880F991F0A94EA
:100D8000E2F78095822301C0660F3A95EAF7862B39
:100D900085BB089522B381E090E0032E02C0880F46
:100DA000991F0A94E2F78095822301C0660F3A9555
:100DB000EAF7862B82BB0895813049F0813028F014
:100DC000823039F0833041F406C06BBB089568BBB4
:100DD000089565BB089562BB0895282F27708695F6
:100DE00086958695813051F0813030F0823041F027
:100DF000833079F080E008958BB303C088B301C0DD
:100E000085B390E002C0959587952A95E2F78170A9
:100E1000089582B390E002C0959587952A95E2F7F0
:100E200081700895813051F0813030F0823041F08E
:100E3000833041F080E008958BB3089588B308951E
:100E400085B3089582B30895382F377086958695B7
:100E50008695813091F0813028F08230C9F083305E
:100E600061F521C02BB381E090E002C0880F991F8B
:100E70003A95E2F728272BBB089528B381E090E04C
:100E800002C0880F991F3A95E2F7282728BB0895DA
:100E900025B381E090E002C0880F991F3A95E2F7F0
:100EA000282725BB089522B381E090E002C0880F77
:100EB000991F3A95E2F7282722BB0895379A08959B
:100EC00037980895329A319A30983F983E9A3D98D3
:100ED000379A089597B1907E97B997B1982B97B9A3
:100EE000369A3699FECF24B135B1C9010895982FAD
:100EF00080918E00813049F487B1807E87B987B1B7
:100F0000892B87B9369A10928E0008953699FECFB4
:100F100081E080938E0080E090E008950E946A074F
:100F2000A0E0B0E0BC01CD0128E833E140E050E0B2
:100F30000E946E0B9B01AC018AE056954795379550
:100F400027958A95D1F7C9010895FC0186B182954C
:100F500086958695837080FD02C080E0089584B1F7
:100F600095B19183808381E080938E00089524B1B0
:100F700035B1C90108951F93182F60E00E949905AB
:100F8000812F0E948E07A0E0B0E0BC01CD0124E6D5
:100F900030E040E050E00E946E0B28E833E140E092
:100FA00050E00E94A10BC9011F9108951F93182FB3
:100FB00060E00E949905812F0E948E071F9108957D
:100FC0001F93182F60E00E949905812F0E946A07E5
:100FD0001F9108950E946E060E9462070895EF9285
:100FE000FF921F93182F81E061E00E948506612F18
:100FF000661F6627661F86E00E948506612F629540
:1010000066956695617085E00E948506612F629500
:101010006695617084E00E948506612F629561701B
:1010200083E00E94850682E061E00E94850680EDF3
:10103000E82E87E0F82EC7010197F1F782E060E023
:101040000E948506C7010197F1F7612F66956695A5
:101050006695617086E00E948506612F66956695AB
:10106000617085E00E948506612F6695617084E05D
:101070000E948506117083E0612F0E94850682E040
:1010800061E00E948506C7010197F1F782E060E008
:101090000E948506C7010197F1F71F91FF90EF901D
:1010A00008950E94EF0708950F931F938C0160E14C
:1010B00077E20E948D0B68EE73E00E948D0B862F05
:1010C000805D0E94EF07C80168EE73E00E948D0BFF
:1010D00064E670E00E948D0B862F805D0E94EF0712
:1010E000C80164E670E00E948D0B6AE070E00E9427
:1010F0008D0B862F805D0E94EF07C8016AE070E0CB
:101100000E948D0B805D0E94EF071F910F91089543
:101110001F93982F92959F70182F1F709A3018F474
:10112000892F805D02C0892F895C0E94EF071A30E9
:1011300018F4812F805D02C0812F895C0E94EF0727
:101140001F9108951F93CF93DF93EC0110E003C02C
:101150000E94EF071F5FFE01E10FF11D80818823D0
:10116000B9F7DF91CF911F9108950F931F93DF93EC
:10117000CF93CDB7DEB72B970FB6F894DEBF0FBE77
:10118000CDBF40E050E08E010F5F1F4FA1E0B0E007
:10119000682F70E0F801E40FF51FCD01042E02C0A6
:1011A000880F991F0A94E2F786239723042E02C022
:1011B000959587950A94E2F7805D80834F5F5F4F36
:1011C0004830510539F782E6898780E38A871B8694
:1011D00010E0BE016F5F7F4F19C09F5F292F30E085
:1011E000FB01E20FF31F80818823B9F7E12FF0E0C4
:1011F000DB01AE0FBF1F9C91E095F095E20FF31F4E
:10120000E60FF71F80818C9390831F5F90E001C0F1
:101210009F5FFB01E90FF11D80818823C9F7212F12
:1012200030E040E050E0892F90E0A0E0B0E0B595DC
:10123000A79597958795281739074A075B0714F4F0
:1012400090E0CCCFCB010E94A2082B960FB6F89469
:10125000DEBF0FBECDBFCF91DF911F910F910895DB
:101260002F923F924F925F926F927F928F929F92B6
:10127000AF92BF92CF92DF92EF92FF920F931F93A4
:10128000DF93CF93CDB7DEB768970FB6F894DEBF84
:101290000FBECDBF4B015C01DE011196EFE8F0E01F
:1012A0008AE001900D928150E1F7B7FE17C04130FE
:1012B00051F4B094A09490948094811C911CA11C32
:1012C000B11C01E017C0442379F4B094A094909429
:1012D0008094811C911CA11CB11C0BC082E088165B
:1012E0009104A104B1042CF480E38B878824992411
:1012F000540100E0240135018AE090E0A0E0B0E074
:101300008D8B9E8BAF8BB88FCC24DD247601ABE028
:101310002A2E312C2C0E3D1E4DC0C301B2012AE0F5
:1013200030E040E050E00E94C30B162FC501B4012D
:101330002D893E894F89588D0E94C30BC901DA015E
:101340002C013D01D101AC0DBD1DE1E0F0E0EC0F41
:10135000FD1FE10FF11D80818C9341145104610444
:101360007104A9F4013051F40894C11CD11CE11C92
:10137000F11CF101EC0DFD1D9DE290830894C11C50
:10138000D11CE11CF11CF101EC0DFD1D10826D89D9
:101390007E898F89988D2AE030E040E050E00E94FD
:1013A0006E0B6D8B7E8B8F8B988F0894C11CD11C1C
:1013B000E11CF11C411451046104710409F0ADCF2A
:1013C00010E0BE01655F7F4F19C09F5F292F30E09D
:1013D000FB01E20FF31F80818823B9F7E12FF0E0D2
:1013E000DB01AE0FBF1F9C91E095F095E20FF31F5C
:1013F000E60FF71F80818C9390831F5F90E001C000
:101400009F5FFB01E90FF11D80818823C9F7212F20
:1014100030E040E050E0892F90E0A0E0B0E0B595EA
:10142000A79597958795281739074A075B0714F4FE
:1014300090E0CCCFCB010E94A20868960FB6F8943A
:10144000DEBF0FBECDBFCF91DF911F910F91FF90F7
:10145000EF90DF90CF90BF90AF909F908F907F9054
:101460006F905F904F903F902F900895EF92FF9272
:101470000F931F937B018C012AE030E040E050E0A5
:101480000E94A10BCA01B9014FEF0E9430098EE200
:101490000E94EF07C801B7012AE030E040E050E0C9
:1014A0000E94A10B4FEF0E9430091F910F91FF90F6
:1014B000EF900895EF92FF921F93182F81E060E064
:1014C0000E948506612F661F6627661F86E00E94C0
:1014D0008506612F629566956695617085E00E942C
:1014E0008506612F62956695617084E00E9485068D
:1014F000612F6295617083E00E94850682E061E061
:101500000E948506B0EDEB2EB7E0FB2EC7010197D8
:10151000F1F782E060E00E948506C7010197F1F7CC
:10152000612F669566956695617086E00E948506D6
:10153000612F66956695617085E00E948506612F32
:101540006695617084E00E948506117083E0612FCA
:101550000E94850682E061E00E948506C70101972E
:10156000F1F782E060E00E948506C7010197F1F77C
:101570001F91FF90EF9008950F931F93CF93DF93E8
:101580008C01862F880F880F880F805C0E945A0A72
:10159000C0E0D0E0F801EC0FFD1F80810E94EF0752
:1015A0002196C830D105B1F780E80E945A0ADF9130
:1015B000CF911F910F91089581E00E945A0A80ED0A
:1015C00097E00197F1F70895882329F4862F806822
:1015D0000E945A0A0895813021F4862F806C0E945F
:1015E0005A0A089584EF91E028EC30E0F901319730
:1015F000F1F70197D9F782E00E945A0A88E20E9427
:101600005A0A8CE00E945A0A81E00E945A0A80ED30
:1016100097E00197F1F786E00E945A0A0895EF9249
:10162000FF920F931F93CF93DF93EC010E946E06FE
:101630000E94F20A00E010E088ECE82EF12C0E94F3
:10164000DC0A612F6F70802F0E94E40ACE010E9495
:10165000A2081F3009F40F5F88EB9BE0F701319778
:10166000F1F70197D9F71F5F103249F7DF91CF915A
:101670001F910F91FF90EF9008951F93182F0E94D4
:101680006E060E94F20A80E060E00E94E40A80E6B2
:1016900090E00E94A20880E068E00E94E40A612FC6
:1016A00070E080E090E04FEF0E94300981E060E060
:1016B0000E94E40A87E690E00E94A20881E068E0C8
:1016C0000E94E40A812F0E9451081F9108950E94F0
:1016D0006E060E94F20A0E944900FFCF629FD0016D
:1016E000739FF001829FE00DF11D649FE00DF11DDD
:1016F000929FF00D839FF00D749FF00D659FF00D8C
:101700009927729FB00DE11DF91F639FB00DE11D78
:10171000F91FBD01CF0111240895AA1BBB1B51E184
:1017200007C0AA1FBB1FA617B70710F0A61BB70B51
:10173000881F991F5A95A9F780959095BC01CD01F6
:101740000895A1E21A2EAA1BBB1BFD010DC0AA1F02
:10175000BB1FEE1FFF1FA217B307E407F50720F01A
:10176000A21BB30BE40BF50B661F771F881F991F95
:101770001A9469F760957095809590959B01AC01DE
:10178000BD01CF01089597FB092E05260ED057FD08
:1017900004D0D7DF0AD0001C38F45095409530951E
:1017A00021953F4F4F4F5F4F0895F6F790958095E5
:1017B000709561957F4F8F4F9F4F0895F894FFCF9D
:1017C00041534349493A00436861723A200000019D
:1017D00001010101010001010101010101010101FA
:1017E00001010101010101010101010101010130BA
:0A17F0003132333435363738390012
:00000001FF
